:020000040800F2
:10000000000002206D4200085541000857410008D9
:10001000594100085B4100085D41000800000000F4
:10002000000000000000000000000000D1220008D5
:100030005F4100080000000061230008C52300089C
:10004000BD420008BD420008BD420008BD42000894
:10005000BD420008BD420008BD420008BD42000884
:10006000BD420008BD420008BD420008BD42000874
:10007000BD420008BD420008BD420008BD42000864
:10008000BD420008BD420008BD420008BD42000854
:10009000BD420008BD420008BD420008BD42000844
:1000A000BD420008BD420008BD420008BD42000834
:1000B000BD420008BD420008BD4200086141000881
:1000C0006D410008BD420008BD420008BD42000865
:1000D000BD420008BD420008BD420008BD42000804
:1000E000BD420008BD420008BD420008BD420008F4
:1000F000BD420008BD420008BD420008BD420008E4
:10010000BD420008BD420008BD420008BD420008D3
:10011000BD420008BD420008BD4200087941000808
:10012000BD420008BD420008BD420008BD420008B3
:10013000BD420008BD420008BD420008BD420008A3
:10014000BD420008BD420008BD420008BD42000893
:10015000BD420008BD420008BD420008BD42000883
:10016000BD420008BD420008BD420008BD42000873
:10017000BD420008BD420008BD420008000000006A
:08018000BD420008BD42000869
:1001900010B5054C237833B9044B13B10448AFF3C1
:1001A00000800123237010BD7000002000000000BB
:1001B0008852000808B5034B1BB103490348AFF34D
:1001C000008008BD00000000740000208852000874
:1001D000034613F8012B002AFBD1181A0138704787
:1001E00001F0FF01102A2BDB10F0070F08D010F8E8
:1001F000013B013A8B422DD010F0070F42B3F6D1EC
:10020000F0B441EA012141EA014122F007047FF004
:1002100000070023F0E80256083C85EA010586EA5B
:10022000010685FA47F5A3FA87F586FA47F6A5FA97
:1002300087F68EB9EED1F0BC01F0FF0102F00702A3
:1002400032B110F8013B013A83EA010313B1F8D14E
:100250000020704701387047002D06BF354603382F
:10026000073815F0010F07D1013015F4807F02BF68
:10027000013015F4C03F0130F0BC0138704700BFB9
:1002800053B94AB9002908BF00281CBF4FF0FF31FD
:100290004FF0FF3000F07AB9ADF1080C6DE904CEF3
:1002A00000F006F8DDF804E0DDE9022304B0704751
:1002B0002DE9F0478C460D460446089E002B51D18F
:1002C0008A4217466DD9B2FA82FEBEF1000F0BD0FA
:1002D000CEF1200C01FA0EF520FA0CFC02FA0EF712
:1002E0004CEA050C00FA0EF44FEA174A250CBCFB49
:1002F000FAF81FFA87F90AFB18CC45EA0C4508FB07
:1003000009F3AB420AD9ED1908F1FF3280F02381DD
:10031000AB4240F22081A8F102083D44ED1AA4B29C
:10032000B5FBFAF00AFB105544EA054400FB09F955
:10033000A14509D9E41900F1FF3380F00A81A145F4
:1003400040F2078102383C44A4EB090440EA08402B
:100350000021002E61D024FA0EF400233460736073
:10036000BDE8F0878B4207D9002E54D0002186E8E3
:1003700021000846BDE8F087B3FA83F1002940F078
:100380008E80AB4202D3824200F2FA80841A65EB7F
:1003900003050120AC46002E3FD086E81010BDE8D2
:1003A000F08712B90127B7FBF2F7B7FA87FEBEF163
:1003B000000F34D1EB1B3A0C1FFA87FC0121B3FB71
:1003C000F2F8250C02FB183345EA03450CFB08F351
:1003D000AB4207D9ED1908F1FF3002D2AB4200F26F
:1003E000D1808046ED1AA3B2B5FBF2F002FB1055A6
:1003F00043EA05440CFB00FCA44507D9E41900F1CD
:10040000FF3302D2A44500F2B8801846A4EB0C04D6
:1004100040EA08409DE731463046BDE8F087CEF11E
:10042000200405FA0EF307FA0EF720FA04F83A0C46
:1004300025FA04F448EA0308B4FBF2F14FEA184540
:1004400002FB11441FFA87FC45EA044501FB0CF34B
:10045000AB4200FA0EF409D9ED1901F1FF3080F03A
:100460008A80AB4240F2878002393D44EB1A1FFA82
:1004700088F5B3FBF2F002FB103345EA034500FBBD
:100480000CF3AB4207D9ED1900F1FF386FD2AB4244
:100490006DD902383D44EB1A40EA01418FE7C1F1C2
:1004A000200722FA07F88B4005FA01F448EA030313
:1004B00020FA07FE4FEA134CFD404EEA040EB5FB4E
:1004C000FCF94FEA1E440CFB19551FFA83F844EA65
:1004D000054509FB08F4AC4202FA01F200FA01FA00
:1004E00008D9ED1809F1FF3043D2AC4241D9A9F146
:1004F00002091D442D1B1FFA8EFEB5FBFCF00CFB00
:1005000010554EEA054400FB08F8A04507D9E41849
:1005100000F1FF3529D2A04527D902381C4440EA12
:100520000940A4EB0804A0FB02894C45C6464D4691
:1005300015D312D056B1BAEB0E0364EB050404FADE
:1005400007F7CB401F43CC40376074600021BDE803
:10055000F0871846F8E69046E0E6C245EAD2B8EBE6
:10056000020E69EB03050138E4E72846D7E7404669
:1005700091E78146BEE7014678E702383C4445E70B
:10058000084608E7A8F102083D442BE7704700BF82
:1005900008B50B4B1A6842F400721A601A6842F4EC
:1005A00080621A601A6842F480721A60032000F0B8
:1005B0002FF8002003F090FD03F01EFD002008BD81
:1005C000003C0240034A044B11681B780B44136043
:1005D000704700BF5C5B002000000020014B1868E2
:1005E000704700BF5C5B002038B50446FFF7F6FF9C
:1005F000631C1CBF054B1B78054618BFE418FFF7AA
:10060000EDFF401B8442FAD838BD00BF0000002037
:10061000074AD36823F4E0631B041B0C43F0BF6359
:10062000000243F4003300F4E0600343D3607047FA
:1006300000ED00E0174B30B5DC68C4F30224C4F1D0
:100640000703251D042B28BF0423062D4FF00105A9
:1006500005FA03F303F1FF338CBF033C0024194078
:10066000A14005FA04F4013C2240002842EA0102BC
:100670004FEA0212ADBF00F1604000F00F00064BE0
:1006800000F56140B5BFD2B2D2B21A5480F800234F
:1006900030BD00BF00ED00E014ED00E0002808DBF5
:1006A0004209012300F01F0003FA00F0014B43F858
:1006B0002200704700E100E090F83530022B03D0B3
:1006C00080234365012070470268052380F8353098
:1006D000136823F0010313600020704790F8350081
:1006E000704700002DE9F04F85B00B68DFF8AC8152
:1006F000684ADFF8AC91019300234FF0010E019C92
:100700000EFA03FE0EEA0406B64540F0AE804C68D1
:1007100024F01007022F16D14FEAD30A00EB8A0A01
:1007200003F0070BDAF820504FEA8B0B4FF00F0C59
:100730000CFA0BFC25EA0C0C0D6905FA0BF545EAE1
:100740000C05CAF820504FEA430A0325D0F800B040
:1007500005FA0AF5ED4304F0030C0BEA050B0CFA5D
:100760000AFC013F4CEA0B0C012FC0F800C011D865
:10077000876807EA050BCF6807FA0AFC4CEA0B0703
:100780008760476827EA0E0EC4F300179F4047EAC8
:100790000E074760C7683D408F6807FA0AF73D4378
:1007A000C560E50061D54FF0000BCDF80CB0D8F86E
:1007B0004470394D47F48047C8F84470D8F8447005
:1007C00007F480470397039F23F0030707F180474F
:1007D00007F59C3703F0030CD7F808A04FEA8C0C00
:1007E0004FF00F0E0EFA0CFEA8422AEA0E0E43D06E
:1007F00005F58065A84241D005F58065A8423FD047
:1008000005F58065A8423DD005F58065A8423BD03E
:1008100048453BD005F50065A84239D005F580650F
:10082000A84214BF0825072505FA0CF545EA0E0570
:10083000BD601568F74314F4803F0CBF3D4035435D
:100840001560556814F4003F0CBF3D4035435560BA
:10085000956814F4801F0CBF3D4035439560D56802
:10086000A40254BF3D403543D5600133102B7FF4C3
:1008700044AF05B0BDE8F08F5D46D5E70125D3E76D
:100880000225D1E70325CFE70425CDE70525CBE7F2
:100890000625C9E7003C0140000002400038024044
:1008A000001402400369194214BF01200020704760
:1008B0000AB1816170470904FBE701684B6913F4D1
:1008C00080634FF0000210D06FF480634B612023EF
:1008D000026380F83D3080F83E20036C80F83C20B5
:1008E00043F00403036401207047184670472DE964
:1008F000F843044617469946C1F307488EB2256867
:10090000B8F1010F0CBF6B69AB6936EA030314BF82
:100910000120002008B9BDE8F8836B695A0516D597
:100920002B6843F400732B606FF480636B612022AB
:100930000023236384F83D2084F83E30226C42F08B
:100940000402226484F83C300120BDE8F8837B1C5B
:10095000D5D0FFF743FEA0EB0900874201D3002F5B
:10096000CDD100232022236384F83D2084F83E303B
:10097000226C42F02002E4E770B504460D461646AC
:1009800023685B695B0701D5002070BD2046FFF737
:1009900094FFA8B96A1CF3D0FFF720FE801B8542A4
:1009A00001D3002DECD100232022236384F83D20C5
:1009B00084F83E30226C84F83C3042F020022264FD
:1009C000012070BD2DE9F843089E044690461F465D
:1009D000C1F307498DB22368B9F1010F0CBF5B6900
:1009E0009B6935EA03030CBF01230023434502D072
:1009F0000020BDE8F8837B1CEDD0FFF7EFFD801BE6
:100A0000874201D3002FE6D100232022236384F8FC
:100A10003D2084F83E30226C84F83C3042F02002C5
:100A200022640120BDE8F88370B504460D461646E1
:100A300023685B691B0601D5002070BD2046FFF7C7
:100A40003CFFA8B96A1CF3D0FFF7C8FD801B8542A4
:100A500001D3002DECD100232022236384F83D2014
:100A600084F83E30226C84F83C3042F0200222644C
:100A7000012070BD70B5044608B9012070BD90F822
:100A80003D3003F0FF021BB980F83C2003F0D6FA9A
:100A90002268242384F83D30136823F00103136097
:100AA00001F046F96568414B9D424DD8404B984254
:100AB000E3D922683F495368B0FBF1F123F03F03CB
:100AC0000B435360136A23F03F0301311943116252
:100AD000D169364B21F44F419D4221F0FF0100F1D5
:100AE000FF3048D86D00B0FBF5F00130C0F30B03C8
:100AF000042B38BF04230B43D3611168206AE369D8
:100B000021F0C00103430B4313609168E06823693F
:100B100021F40341034321F0FF010B439360D168AB
:100B2000A069636921F0FF0103430B43D36013689D
:100B300043F00103136000202023206484F83D303B
:100B4000206384F83E0070BD1B4B984295D9226803
:100B5000184E5368B0FBF6F623F03F03334353605F
:100B6000136A4FF49671714323F03F034FF47A7682
:100B7000B1FBF6F1A9E7A36853B905EB4503B0FB58
:100B8000F3F0431CC3F30B036BB143F40043B2E730
:100B900019236B43B0FBF3F0431CC3F30B0313B1F6
:100BA00043F44043A7E70123A5E700BFA086010067
:100BB0007F841E0040420F00FF083D002DE9FF41E9
:100BC00004461F460D469046FFF708FD94F83D3059
:100BD000202B064604D00225284604B0BDE8F0814B
:100BE00000901923012258492046FFF7EBFE002808
:100BF000F1D194F83C30012BEDD0012384F83C3046
:100C000023681A68D2075EBF1A6842F001021A60B0
:100C10001A6822F400621A60212284F83D20102212
:100C200084F83E20002222646785628D2285474A2F
:100C3000E262E26AC4F82480082A04D0012A02D0C1
:100C400012F5803F04D11A6842F480721A6002E003
:100C5000226B122AF7D000960A9B00224FF0011156
:100C60002046FFF7AFFE08B10125B5E723692268EA
:100C7000B3F5804F13D105F0FE05156133460A9A8E
:100C800033492046FFF733FE05460028ECD12368A0
:100C900003905A6903929B690393039B44E0EB1111
:100CA00003F0060343F0F00313612A490A9A33461E
:100CB0002046FFF71CFE0028D6D12368EDB21D6147
:100CC000DCE732460A992046FFF7AEFE40B1236CBE
:100CD000042B01BF2268136843F400731360C3E759
:100CE000636A20681A4612F8011B01616262628D14
:100CF000013A92B26285228D4769511E89B27F07FF
:100D000021850AD549B15978016102336362638D47
:100D1000013B9BB2023A6385228532460A992046FE
:100D2000FFF72AFE0028D2D1238D002BC9D12168DC
:100D30000A6842F400720A60202284F83D2084F898
:100D40003C3084F83E3047E7020010000000FFFF0F
:100D500002000100080001007047704770477047AB
:100D6000704770477047704770477047806B0268E4
:100D700090F83D1070B51468466B856B002324F421
:100D80008064F363EB63146043851468336524F077
:100D900001042B65146090F83D40602CC9B208D165
:100DA000202280F83D2080F83E300364FFF7DDFF0D
:100DB00070BD01F0280128290DD1146844F0010408
:100DC0001460146844F480641460036380F83D1078
:100DD000FFF7CAFF70BD202280F83D2080F83E302A
:100DE000F6E7000090F83D2090F83E30102B10B54B
:100DF000D2B20446036805D1222A02BF196821F441
:100E00000061196002F0280128293AD100222263EA
:100E100084F83D105A6812F4006259D05A68606B29
:100E200022F400625A6090F83530012B3C4B35D0EB
:100E30000365FFF741FC50B12268606B136823F033
:100E400001031360202384F83D30036D984794F824
:100E50003D30226C5207DBB212D5282B10D122680C
:100E6000536823F4E06353602E4BE3622022002397
:100E70002363204684F83D2084F83E30FFF771FF5D
:100E800010BD5968090504D4602A1CBF202284F8CB
:100E90003D200022226384F83E20BBE7A06B03655F
:100EA000FFF70AFC0028D2D023685A69520605D5FC
:100EB000626A1B691370636A013363622268A06B04
:100EC000136823F001031360202384F83D30BCE74E
:100ED00094F83D10602915D1202184F83D1022643A
:100EE0005A69500605D5626A1B691370636A01333B
:100EF00063622268136823F0010313602046FFF742
:100F000034FFA4E75A69510605D5626A1B6913705C
:100F1000636A013363622046FFF726FF97E700BF4D
:100F20006D0D00080000FFFF036830B55A68C56A00
:100F300090F83E100446C9B290F83D0010298DB0DB
:100F4000C0B202D0402940F0B6829869596911F0C8
:100F5000010F07D1B5F52A0F02D0B5F12A4F52D1B2
:100F60000DB030BD95054ED5E26AB2F52A0F0CD111
:100F70000122E26294F83E20402A11D1226D52B93A
:100F8000626C02F0FE021A61EAE7E26AB2F12A4FED
:100F9000F0D10822EDE7626C42F00102D2B2F2E732
:100FA0002269B2F5804F1BD194F83D20212A626C52
:100FB00012D102F0FE021A61626B12B9A16B002914
:100FC000CED0D26B1AB9A26BD26B002AC8D05A68A5
:100FD00042F400625A60C3E742F00102D2B2EAE78B
:100FE000226D32B9626CD21102F0060242F0F002B8
:100FF000C9E7226D012AB3D1626CD21102F0060258
:1010000042F0F102BFE70D0703D5950501D5626CEB
:10101000E4E78D0740F1E180950540F1DE8094F82A
:101020003E10E26A256B94F83D002228C9B240F0D8
:10103000CC80206D40B9402906D101905A690192B7
:101040009B690193019B8BE7216D81B92069B0F504
:10105000404F0CD102915A6902929A690292029A07
:101060001A6842F480721A60236D013328E0618DA2
:1010700089B251B903915A6903929A690392039A0A
:101080001A6842F400721A6019E0618D89B2012970
:101090004AD112F5803F1CD11A6822F480621A608E
:1010A0005A6812F400620DD01A6822F480621A6045
:1010B000002204925A6904929B690493049B0023C2
:1010C00023654DE705925A6905929A690592059A3A
:1010D000D6E7082A1CD0202A1AD0122D0DD1012AB9
:1010E00016D11A6822F480621A60002206925A69A8
:1010F00006929B690693069BE1E7102AF1D88E4978
:1011000021FA02F2D007ECD51A6842F48062EBE7CC
:101110001A6822F480621A60002207925A690792C4
:101120009A690792079AABE7618D89B202292CD19F
:10113000102A03D88049D140C90722D4196821F464
:1011400080611960196841F40061196059680D05E2
:101150000FD512F5803F08D0511E1F299DBF774A39
:10116000CA40D2430122D00703D45A6842F48052C5
:101170005A60002208925A6908929B690893089B5A
:101180009DE7196841F48061DFE7196841F48061E7
:1011900019605968090510D512F5803F09D0013A48
:1011A0001F2A9DBF654921FA02F2D2430122D207CC
:1011B00003D45A6842F480525A60002209925A6954
:1011C00009929B690993099B79E700220A925A695F
:1011D0000A929B690A930A9BC2E610F0040F5868B2
:1011E00000F0AE8005053FF5BBAE11F0800F01F0B9
:1011F000040169D0500567D5002965D194F83D20D8
:10120000258D94F83E10E06AD2B2C9B2C5B9212A40
:1012100018D1082878D0202876D010F5803F73D0D8
:101220005A6822F4E0625A6011232363002384F891
:101230003E30202384F83D302046FFF78DFD8FE6B9
:10124000212A05D040297FF48BAE222A7FF488AE74
:10125000628D92B21AB95A6822F48062BAE694F8A2
:101260003E20402A26D1226D62B9E26C012AA26C8E
:1012700004D1D2B21A61236D023321E7C2F30722EF
:101280001A61F1E6226D012A02D1A26CD2B2F7E70F
:10129000226D022A7FF464AE94F83D20222A04D104
:1012A0001A6842F480721A605AE694F83D20212AA6
:1012B0007FF456AE626A12F8011B19616262638D97
:1012C000013B9BB263854BE600293FF449AE920592
:1012D0007FF546AEE16A94F83D20212A7FF440AEC6
:1012E000628D92B2002AE5D108290DD020290BD0B9
:1012F00011F5803F08D0596821F4E061596011234D
:10130000236384F83E2094E75A6822F4E0625A602E
:101310001A6842F400721A6000232022236384F8C2
:101320003D2094F83E2084F83E30402A204684D167
:10133000FFF718FD14E600BF140001008180008053
:1013400005053FF50DAE11F0400F01F0040148D046
:10135000500546D5002944D194F83D20222A7FF437
:10136000FFAD628D92B2032A14D9626A1B691370B1
:10137000636A01336362638D013B9BB26385638D56
:101380009BB2032B7FF4ECAD2268536823F4806397
:101390005360E5E5E06A02283FF4E2AD012A3FF63A
:1013A000DFAD1A6822F480621A605A6822F4E062A3
:1013B0005A60626A1B691370636A01336362638DEA
:1013C000013B9BB26385202384F83D3094F83E3086
:1013D00084F83E10402B68D121632046FFF7C3FC00
:1013E000BEE500293FF4BCAD92057FF5B9ADE26AD8
:1013F000618D89B20429616A09D15A6822F4806238
:101400005A601B690B70636A0133636257E7608D32
:1014100080B203280CD15868042A20F480605860F8
:10142000EFD0022AEDD01A6822F480621A60E8E751
:10143000608D80B20228E4D1012A01D0102A28D17F
:101440001A6822F480621A601B690B70626A531C6E
:101450006362638D013B9BB2638523681B69537094
:10146000636A226801336362638D013B9BB26385CB
:10147000536823F440735360202384F83D3094F87C
:101480003E30402B4FF0000384F83E300DD12363F3
:10149000A3E7042A01D0022A03D11A6842F4806229
:1014A000D1E71A6842F40072CDE712232363204685
:1014B000FFF753FC54E5216C21B35969002511F065
:1014C000020F29D012F4007F26D0226C02B19D6950
:1014D00094F83D2002F02802282A16D15A6822F4F6
:1014E00080625A6085F004012B064FF00003C1F3BF
:1014F000800154BFA289228B84F83C302046FFF73C
:101500002FFC2DE59D695969D9E76FF002025A61F8
:10151000002384F83C3023E5CD0640F1AF809505EB
:1015200040F1AC8094F83D505A6822F4E0625A6071
:1015300000220B925A690B921A6842F001021A605B
:101540000B9A1A6822F480621A605A681105EDB28B
:1015500020D505F0F702222A48D1A06B0268526814
:1015600092B26285628D92B21AB1226C42F004028C
:1015700022645A6822F400625A60FFF7AFF801282B
:1015800008D0A06B784B0365FFF796F810B1A06BFD
:10159000036D9847638D9BB213B323685A69520752
:1015A00009D5626A1B691370636A01336362638DD4
:1015B000013B9BB2638523685A69500609D5626A6C
:1015C0001B691370636A01336362638D013B9BB2D5
:1015D0006385638D9BB21BB1236C43F004032364CA
:1015E000236C03B32046FFF7FDFBB9E4606B026890
:1015F000526892B26285628D92B21AB1226C42F048
:10160000040222645A6822F400625A60FFF766F806
:101610000128BFD0606B544B0365FFF74DF80028DD
:10162000B8D0606BB4E72A2D06D12363282384F851
:101630003D302046FFF793FB94F83D30282B0CD12A
:101640004A4BE362202200232363204684F83D2096
:1016500084F83E30FFF785FB82E4236B222B02D017
:10166000222D7FF47DAC00232022236384F83D20CB
:1016700084F83E302046FFF772FB71E400F0F7007B
:10168000212801F0040535D1090627D5510525D5B6
:1016900025BB94F83D10628D92B2C9B2002A3FF486
:1016A0005FAC626A12F8015B1D616262628D013A91
:1016B00092B26285628D92B2002A7FF451AC2929E0
:1016C0007FF44EAC5A6822F480625A60282320636B
:1016D00084F83D302046FFF741FB41E4002D3FF404
:1016E0003FAC95057FF53CAC628D92B2002A7FF449
:1016F000E1AD35E4480627D5510525D525BB94F83D
:101700003D20618D89B2D2B200293FF429AC616AD3
:101710001B690B70636A01336362638D013B9BB28B
:101720006385638D9BB2002B7FF41AAC2A2A7FF469
:1017300017AC2268536823F4806353602223236329
:10174000282384F83D3095E7002D3FF409AC92053D
:101750007FF506AC628D92B2002A3FF401AC626A5A
:101760001B6913704FE600BF6D0D00080000FFFFFE
:10177000F8B503685F695E6817F48075044606D0A3
:1017800016F480751EBF6FF480725A610125B90589
:1017900006D5F20542BF6FF4007245F002055A61AA
:1017A000780537D5F10535D594F83EE0618D94F88C
:1017B0003D20206BBEF1200F89B2D2B25AD1002950
:1017C00058D102F0F701212903D0282A52D121282B
:1017D00050D194F83D20E16A0829D2B201D02029E5
:1017E0002AD1282A28D12C4AE2625A6822F4E062DF
:1017F0005A606FF480625A611A6822F480621A603B
:10180000002320222363204684F83D2084F83E30C4
:10181000FFF7A7FA3A053CD5F3053AD523686FF4EC
:10182000006245F008055A61236C1D43256420467B
:10183000BDE8F840FFF7D6BA212A17D11649E16270
:101840002263202284F83D20002284F83E205A683A
:1018500022F4E0625A606FF480625A611A6822F4DE
:1018600080621A602046FFF779FAD3E76FF480624E
:101870005A61CFE76FF480625A6194F83E20102AD3
:1018800004BF1A6842F4007245F0040508BF1A60EC
:10189000C0E7002DC8D1F8BD0000FFFF2DE9F341DE
:1018A000044618B9012002B0BDE8F0810368DD07E5
:1018B00010D42368980758D423681A0700F19A8037
:1018C00023685B0700F1B880A269002A40F0198103
:1018D0000020E8E7A64B9A6802F00C02042A07D021
:1018E0009A6802F00C02082A0AD15B68590207D5EF
:1018F0009F4B1B689A03DCD56368002BD9D1D1E7D5
:1019000063689B4DB3F5803F11D12B6843F480335E
:101910002B60FEF763FE964D06462B689B03C8D4EA
:10192000FEF75CFE801B6428F7D90320BBE7B3F504
:10193000A02F04D12B6843F480232B60E5E72A68AD
:1019400022F480322A602A6822F480222A60002B46
:10195000DFD1FEF743FE06462B689F03A9D5FEF7AD
:101960003DFE801B6428F7D9DFE7814B9A6812F0AF
:101970000C0F07D09A6802F00C02082A11D15B689C
:101980005E020ED47A4B1A68950702D5E268012AE6
:1019900088D11A68216922F0F80242EAC1021A606D
:1019A0008AE7E268734BB2B101221A60FEF716FEB5
:1019B0006F4D06462B68980707D52B68226923F0E0
:1019C000F80343EAC2032B6076E7FEF707FE801BAD
:1019D0000228EFD9A9E71A60FEF700FE644D06461B
:1019E0002B6899077FF568AFFEF7F8FD801B02288A
:1019F000F6D99AE76269604B7AB101221A60FEF764
:101A0000EDFD5B4D06466B6F9F073FF559AFFEF747
:101A1000E5FD801B0228F6D987E71A60FEF7DEFD98
:101A2000534D06466B6F98077FF54AAFFEF7D6FD1C
:101A3000801B0228F6D978E74D4B1A6C12F08052C1
:101A400028D101921A6C42F080521A641B6C03F088
:101A500080530193019B0126484D2B68D9051BD566
:101A6000A368434D012B27D12B6F43F001032B6754
:101A7000FEF7B4FD3E4D074641F288382B6F9B07B9
:101A800039D5002E3FF420AF394A136C23F0805330
:101A9000136419E70026DFE72B6843F480732B609B
:101AA000FEF79CFD07462B68DA05D9D4FEF796FDB4
:101AB000C01B0228F7D938E7052B04D12B6F43F060
:101AC00004032B67D0E72A6F22F001022A672A6FEE
:101AD00022F004022A67002BCAD1FEF77FFD41F2F3
:101AE000883807462B6F9807CBD5FEF777FDC01BCC
:101AF0004045F7D919E7FEF771FDC01B4045BDD938
:101B000013E71B4DAB6803F00C03082B3FF4CAAE80
:101B10001B4E0023022A336034D1FEF75FFD0746D7
:101B20002B6899011ED4226AE3691343626A43EA6F
:101B30008213E26A43EA0263A26A0D4C5208013A38
:101B400043EA02436B6001233360FEF747FD05461D
:101B500023689A013FF5BCAEFEF740FD401B02280A
:101B6000F6D9E2E6FEF73AFDC01B0228D8D9DCE63A
:101B70000038024000004742800E4742007000409B
:101B800060004742FEF72AFD04462B689B017FF563
:101B90009FAEFEF723FD001B0228F6D9C5E600BF65
:101BA000134908B58B6803F00C03042B03D0082BF2
:101BB00003D0104808BD104808BD4A684B68496802
:101BC00013F4800314BF0C480A48C1F3881118BFEE
:101BD000002302F03F02A1FB0001FEF751FB044B82
:101BE0005B68C3F3014301335B00B0FBF3F008BD56
:101BF000003802400024F40000127A002DE9F04180
:101C00000D46044610B90120BDE8F081444B1A6826
:101C100002F00F028A4228D321688F072DD4C8070B
:101C200040D43F4B1A6802F00F02954266D32268F7
:101C300051076CD4130707D53A4A2169936823F4F6
:101C4000604343EAC1039360FFF7AAFF354B364A6E
:101C50009B68C3F30313D35CD840344B1860002057
:101C600002F03AFA0020BDE8F081CAB21A701B688F
:101C700003F00F039942C6D1CEE72A4B11F0040FAF
:101C80001EBF9A6842F4E0529A600E0742BF9A68FB
:101C900042F460429A609A68A06822F0F00202431F
:101CA0009A60BCE762681F4B012A1DD11B6813F4C0
:101CB000003FA8D01B4EB36823F003031343B36067
:101CC000FEF78CFC41F288380746B368626803F07F
:101CD0000C03B3EB820FA4D0FEF780FCC01B404581
:101CE000F3D90320BDE8F081911E01291B6802D8B9
:101CF00013F0007FDDE713F0020FDAE7EAB21A70A3
:101D00001B6803F00F039D427FF47DAF8FE7054909
:101D1000E0688B6823F4E05303438B608AE700BFDD
:101D2000003C0240003802407458000808000020BF
:101D3000044B054A9B68C3F38223D35C034A1068B3
:101D4000D84070470038024084580008080000203E
:101D50000F2303600B4B9A6802F0030242609A68FB
:101D600002F0F00282609A6802F4E052C2609B685E
:101D7000DB0803F4E0530361034B1B6803F00F031C
:101D80000B60704700380240003C02407047036817
:101D9000DA6842F00102DA609A6802F00702062A65
:101DA0001EBF1A6842F001021A6000207047704797
:101DB00070477047704703681A69910710B5044669
:101DC0000ED5DA6892070BD56FF002021A619B6993
:101DD00001229B07027777D0FFF7EAFF00232377E2
:101DE00023681A69500710D5DA6851070DD56FF0CE
:101DF00004021A619B69022213F4407F2277204675
:101E000068D0FFF7D5FF0023237723681A691207EC
:101E10000FD5DA6810070CD56FF008021A61DB697C
:101E200004229907227720465AD0FFF7C1FF0023EA
:101E3000237723681A69D20610D5DA68D0060DD543
:101E40006FF010021A61DB69082213F4407F2277D9
:101E500020464BD0FFF7ACFF0023237723681A6995
:101E6000D10708D5DA68D20705D56FF001021A61EB
:101E7000204601F089FF23681A69100608D5DA6840
:101E8000110605D56FF080021A61204600F0B7F800
:101E900023681A69520608D5DA68500605D56FF02E
:101EA00040021A612046FFF785FF23681A699106F0
:101EB00022D5DA6892061FD56FF0200220461A61FB
:101EC000BDE8104000F09AB8FFF771FF2046FFF719
:101ED00070FF83E7FFF76BFF2046FFF76AFF92E78B
:101EE000FFF765FF2046FFF764FFA0E7FFF75FFFFE
:101EF0002046FFF75EFFAFE710BD0000304A0368E1
:101F0000904212D0B0F1804F0FD0A2F57C429042A7
:101F10000BD002F58062904207D002F580629042B9
:101F200003D002F57842904219D14A6823F0700339
:101F30001343234A904229D0B0F1804F26D0A2F516
:101F40007C42904222D002F5806290421ED002F57F
:101F5000806290421AD002F57842904216D0194A17
:101F6000904213D002F5806290420FD002F5806259
:101F700090420BD0A2F59832904207D002F58062D1
:101F8000904203D002F58062904203D1CA6823F4E4
:101F9000407313434A6923F08003134303608B6843
:101FA000C3620B688362064B984203D003F58063DB
:101FB000984201D10B69036301234361704700BF5D
:101FC000000001400040014010B50446A0B190F867
:101FD0003D3003F0FF021BB980F83C20FFF7D6FE2E
:101FE000022384F83D302068211DFFF787FF01237D
:101FF00084F83D30002010BD012010BD70477047AF
:10200000EFF3058313B16FF005007047EFF3108312
:10201000002BF8D1074B1868022806D1EFF3118383
:10202000002BF0D14FF0FF3070470028FAD1012289
:102030001A607047E008002010B5EFF3058313B174
:102040006FF0050010BDEFF31084002CF8D1094BA0
:102050001A68022A06D1EFF31183002BF0D14FF05A
:10206000FF3010BD012AFAD102221A6001F03AF8BD
:10207000204610BDE0080020F0B587B014460022CD
:102080000B460592EFF3058272BBEFF310825ABB49
:10209000294A1268022A02D1EFF3118222BB18B337
:1020A00000228DF81320002C3DD0216809B90DF1D4
:1020B0001301A569002D08BF18256A1E372A2F466F
:1020C00037D86268D20734D4666986B1B208D4F8CA
:1020D00008E0D4F80CC0BEF1000F0BD0BCF1530FD8
:1020E00002D9246904B1B6B9059807B0F0BD4FF420
:1020F0000072ECE7BCF1000FF6D12469002CF3D19B
:1021000005AC0194009792B200F0BFFF01281CBFFC
:1021100000230593E8E7CDF808E00194009500F06E
:102120007DFF0590E0E718274FF400720DF11301D1
:10213000E6E70020D9E700BFE008002008B5EFF38C
:10214000058313B16FF0050008BDEFF31083002B7A
:10215000F8D1064B1B68022B03D1EFF31183002B40
:10216000F0D110B101F014F9002008BDE008002002
:10217000034B0360034B0B604FF400731360704715
:102180008C0800208C000020034B0360034B0B6085
:102190004FF4806313607047E4180020E4080020C7
:1021A00000F1080343604FF0FF32C3600361002376
:1021B00082600360704700230361704743684B608F
:1021C0009A688A609A68516099600368086101336F
:1021D000036070470A68531C30B50AD103695A6816
:1021E0004A6091608B605960036808610133036045
:1021F00030BD00F108035C682568AA42EFD323468E
:10220000F9E74168826803698A60826851605968A9
:10221000884208BF5A60002202611A68013A1A60B7
:102220001868704782B0002301930D4B1B6801337F
:1022300008D04FF0500383F31188BFF36F8FBFF3C3
:102240004F8FFEE74FF0500383F31188BFF36F8F7A
:10225000BFF34F8F019B002BFCD002B0704700BF33
:102260000400002008480068006880F308884FF0E8
:10227000000080F3148862B661B6BFF34F8FBFF3DE
:102280006F8F00DF00BF000008ED00E0DFF80C00FA
:10229000016841F4700101607047000088ED00E0C2
:1022A0004FF0807340F8043C074B40F80C3C21F0A1
:1022B00001016FF0020340F8081C40F8202C40F8A0
:1022C000243C4438704700BF25220008000000006D
:1022D000074B19680868B0E8F04F80F30988BFF32E
:1022E0006F8F4FF0000080F311887047AFF30080CC
:1022F000585500204FF0500383F31188BFF36F8FC0
:10230000BFF34F8F0A4A13680133012B13600DD1BD
:10231000084B1B6813F0FF0F08D04FF0500383F3F6
:102320001188BFF36F8FBFF34F8FFEE7704700BF79
:102330000400002004ED00E0084A136843B94FF0A0
:10234000500383F31188BFF36F8FBFF34F8FFEE706
:10235000013B13600BB983F3118870470400002020
:10236000EFF30980BFF36F8F154B1A681EF0100F43
:1023700008BF20ED108A20E9F04F10602DE9090018
:102380004FF0500080F31188BFF34F8FBFF36F8F72
:1023900001F022F84FF0000080F3118809BC1968A1
:1023A0000868B0E8F04F1EF0100F08BFB0EC108ABC
:1023B00080F30988BFF36F8F704700BFAFF30080D1
:1023C0005855002008B54FF0500383F31188BFF330
:1023D0006F8FBFF34F8F00F0D7FE18B1034B4FF054
:1023E00080521A60002383F3118808BD04ED00E0D9
:1023F000084A0949002313600B60084B4FF47A71B7
:102400001B68B3FBF1F30649013B0B600723136024
:10241000704700BF10E000E018E000E00800002076
:1024200014E000E0394B3A4A13B51968914208D1DB
:102430004FF0500383F31188BFF36F8FBFF34F8FBB
:10244000FEE71A68334B9A4208D14FF0500383F3EA
:102450001188BFF36F8FBFF34F8FFEE72E4B1A78B3
:10246000D2B20192FF221A701B782C4ADBB28DF88F
:1024700003309DF8033003F050031370284B0722FC
:102480001A6000219DF80300000602F1FF340DD40C
:1024900001B11A601A68032A11D04FF0500383F378
:1024A0001188BFF36F8FBFF34F8FFEE79DF80320B6
:1024B0005200D2B28DF8032001212246E2E7120237
:1024C00002F4E0621A60019B134ADBB21370154BF1
:1024D0001A6842F470021A601A6842F070421A6078
:1024E000FFF786FF104B00241C60FFF7CFFE0F4A5A
:1024F000136843F040431360FFF7B4FE00F06CFF35
:10250000FFF790FE204602B010BD00BF00ED00E0D6
:1025100071C20F4170C20F4100E400E03819002081
:102520003C19002020ED00E00400002034EF00E022
:10253000EFF305830F2B0ED9104A9B5C104A1278DB
:102540009A4208D94FF0500383F31188BFF36F8F7D
:10255000BFF34F8FFEE70B4B0B4A1B68126803F467
:10256000E063934208D94FF0500383F31188BFF31F
:102570006F8FBFF34F8FFEE7704700BFF0E300E0BF
:10258000381900200CED00E03C19002010B50F4B6D
:102590001A68824218D35C681919884201BF4168E1
:1025A000184609195960446801198A4207D1084937
:1025B00009688A421FBF5168126809194160984230
:1025C000026018BF186010BD1346E1E750550020A7
:1025D000401900202DE9F041044600F0C7FD3E49B6
:1025E0003E4D0B680BBB3E4A56071FBFD01D20F067
:1025F000070002F570531B1A14BF02464FF47053C4
:102600001344083B23F00703364E0B600020706034
:10261000326058601860981A1360334B506018602D
:10262000324B18604FF000432B602F68274216D1C1
:10263000002C41D004F1080358071CBF23F0070306
:10264000083363B1294A1668B342904607D8254A31
:1026500015686868834204D809688D4207D1002450
:102660002AE02C68002CF7D02A462546F1E7296895
:1026700014681160C21A102A0FD9E818410708D04F
:102680004FF0500383F31188BFF36F8FBFF34F8F69
:10269000FEE742606B60FFF779FF13496B680868DB
:1026A000F61A1F4386424FF00003C8F8006038BF97
:1026B0000E6008346F602B6000F0F6FD630708D0F1
:1026C0004FF0500383F31188BFF36F8FBFF34F8F29
:1026D000FEE72046BDE8F081401900204455002067
:1026E00044190020505500204C550020485500202A
:1026F00010B5044670B3184A50F8043C12681342EF
:1027000008D14FF0500383F31188BFF36F8FBFF3ED
:102710004F8FFEE750F8081C41B14FF0500383F390
:102720001188BFF36F8FBFF34F8FFEE723EA0203D9
:1027300040F8043C00F01AFD084A54F8043C1168C3
:10274000A4F108000B441360FFF720FFBDE8104020
:1027500000F0AABD10BD00BF445500204855002020
:1027600010B50446FFF7C6FDA46BFFF7E5FDB4FA0C
:1027700084F0400910BD70B51546026C866B0446A6
:1027800042B905689DB9406800F038FF65600136C0
:10279000A66370BD6DB9806801F0BCFDA368226CB2
:1027A00013446268A360934201D32368A3600020AE
:1027B000EDE7C06801F0AEFD236CE26821685B4282
:1027C0001A448A42E2603EBF62689B18E360022DB1
:1027D000EDD10EB1013EEAE73046D8E7034610B42A
:1027E0001A6C084662B1D9685C681144A142D9608C
:1027F00024BF1968D960D9685DF8044B01F08ABD1F
:102800005DF8044B704770B50446FFF773FD94F80C
:10281000455004F124066DB2002D14DCFF2384F82A
:102820004530FFF789FDFFF765FD94F8445004F14A
:1028300010066DB2002D12DCFF2384F84430BDE891
:102840007040FFF779BD636A002BE7D0304600F097
:1028500037FE08B100F0BCFE013D6DB2DCE7236934
:10286000002BE9D0304600F02BFE08B100F0B0FE9E
:10287000013D6DB2DEE7000038B50D46044640B9B3
:102880004FF0500383F31188BFF36F8FBFF34F8F67
:10289000FEE7FFF72FFD206CE36B2268A260434345
:1028A000D1181B1A13446160E3600021FF23A16368
:1028B00084F8443084F8453095B9236963B104F154
:1028C000100000F0FDFD38B10A4B4FF080521A6045
:1028D000BFF34F8FBFF36F8FFFF72EFD012038BD81
:1028E00004F11000FFF75CFC04F12400FFF758FC32
:1028F000F2E700BF04ED00E013B51C4640B94FF00D
:10290000500383F31188BFF36F8FBFF34F8FFEE740
:1029100043B94FF0500383F31188BFF36F8FBFF3B8
:102920004F8FFEE74AB1D9B94FF0500383F31188B6
:10293000BFF36F8FBFF34F8FFEE789B14FF05003A6
:1029400083F31188BFF36F8FBFF34F8FFEE74FF014
:10295000500383F31188BFF36F8FBFF34F8FFEE7F0
:1029600048230193019B482BF1D10123002908BF83
:102970002246E063216484F84630226019462046EE
:10298000FFF77AFF204602B010BD00002DE9FF4797
:10299000894601921F46044640B94FF0500383F325
:1029A0001188BFF36F8FBFF34F8FFEE7002940F010
:1029B0008880036C002B00F084804FF0500383F379
:1029C0001188BFF36F8FBFF34F8FFEE7019E002E7C
:1029D00000F082804FF0500383F31188BFF36F8FB4
:1029E000BFF34F8FFEE7019D1DB9FFF7A5FC002047
:1029F00058E016B902A800F0A3FDFFF79DFC00F017
:102A0000B5FBFFF777FC94F84430FF2B08BF84F840
:102A1000448094F84530FF2B08BF84F84580FFF7C9
:102A20008BFC01A902A800F097FD002843D1FFF715
:102A300061FCA66BE56BFFF77FFCAE4235D10199D7
:102A400004F1100000F004FD2046FFF7DCFE00F06A
:102A50002BFC38B94FF08053CAF80030BFF34F8FCA
:102A6000BFF36F8F0126FFF745FCA26BE36B9A4221
:102A700001D3022FB7D13A4649462046FFF77BFEE5
:102A8000636A1BB104F1240000F01AFD38B1194B40
:102A90004FF080521A60BFF34F8FBFF36F8FFFF775
:102AA0004BFC012004B0BDE8F0872046FFF7ABFEE9
:102AB00000F0FAFBD6E72046FFF7A5FE00F0F4FB96
:102AC00095E7022F02D1E36B012B0AD100F086FDBE
:102AD00000283FF47BAF00264FF00008DFF814A079
:102AE000C1E74FF0500383F31188BFF36F8FBFF33B
:102AF0004F8FFEE704ED00E02DE9F843884691464C
:102B00001F46044640B94FF0500383F31188BFF3CA
:102B10006F8FBFF34F8FFEE709BB036CFBB14FF024
:102B2000500383F31188BFF36F8FBFF34F8FFEE71E
:102B300004F1240000F0C4FC002834D0B9F1000FE7
:102B400031D00120C9F8000086F31188BDE8F88370
:102B500001356DB284F8455025E00020F4E7022FDE
:102B600002D1E36B012B20D1FFF7E2FCEFF31186DA
:102B70004FF0500383F31188BFF36F8FBFF34F8F74
:102B8000A26BE36B9A4201D3022FE6D194F8455031
:102B90003A466DB241462046FFF7EDFD6B1CD7D19A
:102BA000636A002BC4D10120CEE74FF0500383F3BA
:102BB0001188BFF36F8FBFF34F8FFEE72DE9F0430E
:102BC00085B088460192044640B94FF0500383F324
:102BD0001188BFF36F8FBFF34F8FFEE7002940F0DE
:102BE0008680036C002B00F082804FF0500383F34B
:102BF0001188BFF36F8FBFF34F8FFEE7019E002E4A
:102C00007AD04FF0500383F31188BFF36F8FBFF377
:102C10004F8FFEE7019D1DB9FFF78EFB002052E0AC
:102C200016B902A800F08CFCFFF786FB00F09EFAB4
:102C3000FFF760FB94F84430FF2B08BF84F8447022
:102C400094F84530FF2B08BF84F84570FFF774FBFC
:102C500001A902A800F080FC00283DD12046FFF722
:102C60007FFD98B3019904F1240000F0F1FB2046A8
:102C7000FFF7C9FD00F018FB38B94FF08053C9F8D1
:102C80000030BFF34F8FBFF36F8F0126FFF732FB8A
:102C9000A56B002DBED041462046013DFFF79EFDAD
:102CA000A563236963B104F1100000F009FC38B199
:102CB000134B4FF080521A60BFF34F8FBFF36F8FEB
:102CC000FFF73AFB012005B0BDE8F0832046FFF78F
:102CD0009AFD00F0E9FAD8E72046FFF794FD00F0EE
:102CE000E3FA2046FFF73CFD0028CED096E700F03F
:102CF00075FC002882D000260027DFF80490C5E785
:102D000004ED00E030B5074A002352F8335002EBDF
:102D1000C3041DB942F83310606030BD0133082B85
:102D2000F3D130BD605B002070B504460D461646F9
:102D3000FFF7E0FA94F84430FF2B04BF002384F837
:102D4000443094F84530FF2B04BF002384F845300D
:102D5000FFF7F2FAA36B2BB93246294604F124009F
:102D600000F090FB2046BDE87040FFF74CBD00002E
:102D70002DE9F0410646FFF7BDFA2D4B2D4C1A68A0
:102D80002D4F01321A602568002D46D126601B6840
:102D9000012B1DD178191435FFF702FAB5F58C6FA8
:102DA000F8D1DFF8C080254D4046FFF7F9F92846F5
:102DB000FFF7F6F92248FFF7F3F92248FFF7F0F999
:102DC0002148FFF7EDF9214BC3F80080204B1D602F
:102DD000204A1368013313601F4AF36A11681420F4
:102DE0008B4200FB037006F1040188BF1360FFF7FC
:102DF000E5F9FFF7A1FA194B1B6863B12368DA6A9A
:102E0000F36A9A4207D2164B4FF080521A60BFF312
:102E10004F8FBFF36F8FBDE8F081104B1B68002B05
:102E2000D6D12368DA6AF36A9A4298BF2660CFE760
:102E3000C45900205855002064550020F059002046
:102E40000C5A0020385A0020245A00205C550020DB
:102E500060550020D4590020D8590020205A002065
:102E600004ED00E0DC590020064A13681968064B9F
:102E700019B94FF0FF321A6070471268D268D268F1
:102E80005268F8E75C550020045A00202DE9F0470D
:102E90000A9CDDF82480266B02F18042013A06EBA1
:102EA00082069A4681464B1E26F0070604F134023C
:102EB0000F31587802F8010B13F8010F08B18B425B
:102EC000F7D1089D372D28BF37250027E5626564B7
:102ED000201D84F84370A764FFF76DF9C5F138052C
:102EE00004F11800FFF767F9E7642461A5616462E3
:102EF00084F85070524649463046FFF7D1F92060B9
:102F0000B8F1000F01D0C8F80040BDE8F08710B557
:102F100090F8513004463BB9006BFFF7E9FB2046BF
:102F2000BDE81040FFF7E4BB012BF9D0022B08D01D
:102F30004FF0500383F31188BFF36F8FBFF34F8FB0
:102F4000FEE710BD80B5DFF85C80124F124C134DC8
:102F5000236863B9124B1B68012BF8D94FF08053DB
:102F6000C8F80030BFF34F8FBFF36F8FEEE7FFF766
:102F7000C1F9FB68DE68301DFFF743F92B68013BA0
:102F80002B602368013B2360FFF7D6F93046FFF73B
:102F9000BEFFDDE7385A0020C8590020C459002080
:102FA0006455002004ED00E0F8B5164B164D1E6880
:102FB0000446286804300F46FFF723F9631C2B46AC
:102FC00007D137B1296811480431BDE8F840FFF74F
:102FD000F5B834441A68A642546007D90C4A106800
:102FE0001968BDE8F8400431FFF7F4B8094A1068E1
:102FF00019680431FFF7EEF8074B1A68944238BF9E
:103000001C60F8BD4C5A002058550020245A00205E
:10301000605500205C550020045A002070B586B031
:103020000B9D0C9C45B94FF0500383F31188BFF3FF
:103030006F8FBFF34F8FFEE744B94FF0500383F318
:103040001188BFF36F8FBFF34F8FFEE754260496AE
:10305000049E542E08D04FF0500383F31188BFF321
:103060006F8FBFF34F8FFEE72563022584F8515021
:1030700005AD01950A9D02940095FFF707FF2046D4
:10308000FFF776FE059806B070BD2DE9F0430746C0
:1030900085B09000884616469946FFF79BFA05468C
:1030A000E8B15420FFF796FA0446A8B1002380F84F
:1030B00051300D9B056301930C9B029000933246A7
:1030C0004B4641463846FFF7E1FE2046FFF750FEEB
:1030D000012005B0BDE8F0832846FFF709FB4FF05B
:1030E000FF30F6E710B588B0002407AA06A905A8A6
:1030F00005940694FFF73CF8059B0293069B019309
:1031000000942346079A14491448FFF787FFA0B993
:1031100008B010BD4FF0500383F31188BFF36F8FD9
:10312000BFF34F8F0E4B4FF0FF321A600D4B1860FC
:103130000D4B1C60FFF776F9EAE700F0F3FA01287F
:10314000E8D00130E4D14FF0500383F31188BFF38E
:103150006F8FBFF34F8FFEE7A0520008452F000886
:10316000045A0020205A00204C5A0020024A1368BA
:1031700001331360704700BFD0590020014B18681D
:10318000704700BF4C5A00202DE9F84F3B4B1B689D
:10319000002B51D13A4B1C6801341C60BCB9394B2F
:1031A0001A68126842B14FF0500383F31188BFF3DD
:1031B0006F8FBFF34F8FFEE7334A196810681860AE
:1031C0001160324A136801331360FFF74DFE304D32
:1031D000304F2B689C424FF0000B3CD3DFF8A480AB
:1031E000DFF8C090D8F80020126862BB4FF0FF32C1
:1031F0002A6030E006F1040A5046FFF702F8B16A8F
:1032000019B106F11800FEF7FCFFF06AD9F80010BA
:10321000214B88424FF0140288BFC9F80000514684
:1032200002FB0030FEF7CAFF3868F16AC26A9142B9
:1032300028BF4FF0010BD5E7184A1368013313601C
:103240004FF0000B11E0D8F80020D268D668716802
:103250008C42CFD229603A680F4BD16A14224A437C
:103260009A58022A28BF4FF0010B0D4A1268002A13
:1032700018BF4FF0010B5846BDE8F88FD059002019
:103280004C5A00205C55002060550020085A002050
:10329000045A00205855002064550020CC590020C5
:1032A000505A0020D85900202DE9F0412F4C2368B6
:1032B00043B94FF0500383F31188BFF36F8FBFF30F
:1032C0004F8FFEE7FFF716F82368013B2360246861
:1032D0002CB10024FFF730F82046BDE8F081244BE4
:1032E0001B68002BF5D0234E234FDFF8A0803368F6
:1032F000E3B90CB1FFF7B8FD204D2C6844B1204E66
:103300000127FFF741FF00B13760013CF9D12C6084
:103310001B4B1B68002BDCD01A4B4FF080521A60FD
:10332000BFF34F8FBFF36F8F0124D3E7F368DC68DF
:10333000251D04F11800FEF764FF2846FEF761FF23
:10334000E36A3A681420934200FB0380294688BF51
:103350003B60FEF733FF0C4BE26A1B68DB6A9A4264
:1033600022BF074B01221A60C1E700BFD0590020DD
:10337000C45900200C5A0020D8590020CC590020F4
:10338000505A002004ED00E05855002064550020FC
:1033900008B540B90E4B4FF080521A60BFF34F8F03
:1033A000BFF36F8F08BD0B4B196841B14FF050034D
:1033B00083F31188BFF36F8FBFF34F8FFEE7FFF7E3
:1033C000D5FEFFF7F1FDFFF76FFF0028E2D008BD43
:1033D00004ED00E0D0590020184B1A68184BF0B5E6
:1033E00012B101221A60F0BD164D1A60164A2B6800
:1033F0001427164607FB03F1501854588CB1446843
:103400000831646844600A44944204BF62684260C0
:10341000142202FB03625268D1680C4A11602B60CF
:10342000F0BD43B94FF0500383F31188BFF36F8FA2
:10343000BFF34F8FFEE7013BDCE700BFD059002010
:10344000505A0020D85900206455002058550020BB
:1034500010B50C4640B94FF0500383F31188BFF309
:103460006F8FBFF34F8FFEE7054B19681831FEF7DA
:10347000B1FE20460121BDE81040FFF795BD00BF19
:103480005855002038B50D46144640B94FF050034A
:1034900083F31188BFF36F8FBFF34F8FFEE7074BA6
:1034A00019681831FEF78AFE002C21460CBF284609
:1034B0004FF0FF30BDE83840FFF776BD585500208B
:1034C00038B5C368DC6844B94FF0500383F3118802
:1034D000BFF36F8FBFF34F8FFEE704F11805284647
:1034E000FEF78FFE104B1B68DBB9251D2846FEF743
:1034F00088FE0E4AE36A11688B4288BF13600C4A4B
:103500001420294600FB0320FEF758FE094BE26A0F
:103510001B68DB6A9A4283BF074B012018600020BA
:1035200038BD29460548EFE7D0590020D85900207A
:103530006455002058550020505A00200C5A002095
:10354000034B1B680360034B1B684360704700BF5D
:10355000085A00204C5A002070B50C46054640B968
:103560004FF0500383F31188BFF36F8FBFF34F8F7A
:10357000FEE741B94FF0500383F31188BFF36F8F1B
:10358000BFF34F8FFEE7FEF7B5FE0F4B69681A6871
:103590002368581C0ED00D482E680068864201D062
:1035A0008A420ED2521A9A4209D29B1A23602846A6
:1035B000FFF7C6FF0024FEF7BFFE204670BD0023C4
:1035C00023600124F7E700BF4C5A0020085A00206E
:1035D000014B01221A607047505A0020054B1B68AE
:1035E00033B1054B1B68002B0CBF02200020704735
:1035F00001207047205A0020D059002038B50446D9
:1036000008B9002038BD1B4B1B68984208D04FF00A
:10361000500383F31188BFF36F8FBFF34F8FFEE723
:10362000836C43B94FF0500383F31188BFF36F8F5E
:10363000BFF34F8FFEE7C16A426C013B9142836446
:10364000DFD0002BDDD1051D2846FEF7DAFD636CC7
:10365000E362C3F13802A261074A11688B4288BF56
:103660001360064A142000FB03202946FEF7A6FD3E
:10367000012038BD58550020D8590020645500203D
:10368000F7B5114CFEF736FE2568BDB90F4F104E49
:103690003846FEF785FD3046FEF782FD0D4B0E4A9B
:1036A0001F600E4B0C211E600A2000950C4BFFF78B
:1036B00023F9206010B10B49FFF724FB03B0BDE8EC
:1036C000F040FEF739BE00BF485B0020D45A00200E
:1036D000E85A0020545A00205C5A0020585A002012
:1036E000005B0020A5520008914208B541600061CE
:1036F0000AD8D21A83699A420DD2084B011D186864
:10370000FEF768FD002008BD9A4201D2994202D21C
:10371000011D034BF3E7012008BD00BF585A0020EC
:10372000545A002010B588B0FFF7AAFF134B1B684E
:1037300043B94FF0500383F31188BFF36F8FBFF38A
:103740004F8FFEE7002407AA06A905A80594069452
:10375000FEF71AFD059B0293069B0193022300933B
:10376000079A074907482346FFF758FC064B18609D
:103770000028DED0012008B010BD00BF485B00204B
:10378000AA520008613800084C5B002030B515468D
:1037900085B01A46034640B94FF0500383F31188B1
:1037A000BFF36F8FBFF34F8FFEE70D4C206880B1E2
:1037B00005290191029503930DDCFFF70FFF00230C
:1037C000022808BF089A206818BF1A4601A9FFF707
:1037D000DDF805B030BD002301A9FFF78DF9F8E74A
:1037E000485B00202DE9F3411B4D4FF000082B688A
:1037F0001A6832B9194A11682960136002B0BDE82D
:10380000F081DB68DC681E68271D3846FEF7F9FC8E
:10381000636A20469847E369012BE8D1A3693344E2
:103820009E4206D26360246139462868FEF7D2FCC6
:10383000DDE70023CDF80080324619462046FFF729
:10384000A5FF0028D3D14FF0500383F31188BFF3B5
:103850006F8FBFF34F8FFEE7545A0020585A002055
:103860002DE9F04F6E4DDFF8C88189B02F462B68E7
:10387000D3F800B0BBF1000F43D0DB68D3F8009061
:10388000FFF774FCFFF77AFC664B1A689042824699
:103890001E4638D20393FFF7A5FF039B0124C3F80C
:1038A00000A0002C40F08280BBF1000F63D0D14516
:1038B0007AD8FFF7F9FC3B68DB68D3F80CB00BF162
:1038C0000400FEF79EFCDBF81C30012B1DD1DBF859
:1038D00018104B46524649445846FFF705FFA0B121
:1038E000009423464A4621465846FFF74FFF60B9E9
:1038F0004FF0500383F31188BFF36F8FBFF34F8FE7
:10390000FEE7D946BCE70024C9E7DBF82430584677
:103910009847DFF81891D9F80000002205A9FFF7B1
:103920004DF90028A3D0059B002BF4DB079C6369AD
:1039300013B1201DFEF765FCFFF720FC33689842A9
:10394000834601D2FFF74EFF059AC6F800B0092A58
:10395000E1D80123934013F4047A4ED113F0C70F3A
:1039600027D19B06D7D594F82830002BD3D12046F9
:10397000FEF7BEFECFE72C4B1B681A68B2FA82F244
:1039800052092A4BA9EB0A011868FFF7CDF9FFF796
:103990008BFC0028BDD14FF08053C8F80030BFF336
:1039A0004F8FBFF36F8FB4E72246EAE7FFF77CFC47
:1039B000AFE7A169069B5A4619442046FFF794FEDB
:1039C0000028A8D0636A20469847E369012BA2D15A
:1039D000A2690699CDF800A00A44534651462046F4
:1039E000FFF7D4FE002896D14FF0500383F31188DF
:1039F000BFF36F8FBFF34F8FFEE70699A16141B907
:103A00004FF0500383F31188BFF36F8FBFF34F8FD5
:103A1000FEE75B465A4659442046FFF765FE7AE7C3
:103A2000545A0020FC5A0020585A0020485B0020BD
:103A300004ED00E0044BC0221A70402100225A70AD
:103A40009970DA7004207047685C002010B50A4C49
:103A5000002202212046FCF72BFF4FF4FA70FCF7FE
:103A6000C3FD204601220221FCF722FF4FF4FA7029
:103A7000BDE81040FCF7B8BD00040240F7B50446AD
:103A80000E480F4F0E4600F059FC25462B1B9E4258
:103A90000EDC0A2000F06AFC4FF0FF330948009367
:103AA000224633467C210068FDF788F803B0F0BD5C
:103AB00015F8011B384600F041FCE7E7B257000853
:103AC000B6570008005D0020F7B504461248134FB2
:103AD0000E4600F033FC25462B1B9E4213DC0A20C9
:103AE00000F044FC4FF0FF330D480093224633466C
:103AF0007C210068FDF762F858B10A4803B0BDE8C0
:103B0000F04000F01BBC15F8011B384600F016FC15
:103B1000E2E703B0F0BD00BFBE570008B857000889
:103B2000005D0020C25700081FB580238DF80C30BF
:103B30008DF80D004FF0FF330648009303AA0223CF
:103B40007C210068FDF73AF80A20FCF74DFD05B02E
:103B50005DF804FB005D002010B504460848802392
:103B6000037083700022102304214270C370FFF79A
:103B700085FFA4F15000C0B2BDE81040FFF7D4BFEC
:103B8000685C00202DE9F74F804608468DE80C0060
:103B9000FFF7E2FFFFF74EFF05464046FCF718FB34
:103BA000DFF878C05FFA80FE1B4800244FF006095A
:103BB00005F1780AE3B29E458CBF18F80420002274
:103BC00009FB04F102EB820205EB010B6244AAEB54
:103BD00001010023052B1CD0019E012E0ABFD61A1D
:103BE000D65C3679009F012F0CBF5F1803EB0B07E3
:103BF00007440133062B7E70ECD10134152CD9D14A
:103C0000A5F180010448C9B203B0BDE8F04FFFF749
:103C10005BBF0026E6E700BF685C0020B2520008E8
:103C200010B5FFF799FFFFF705FF0949002301448D
:103C30001C46C218D2B2952A07D9A0F18001C9B298
:103C40000348BDE81040FFF73FBFCC540133F0E715
:103C5000685C002010B50446FFF7F8FE0E4BE2202A
:103C60001C60FFF761FF0D48082242704022C270BD
:103C7000222280234271A622037083700371837114
:103C8000C271037283722F22AF234272C3720C215E
:103C9000BDE81040FFF7F2BE005D0020A05B0020F1
:103CA00008B50120FFF774FBFBE7000008B5FA2018
:103CB000FEF744FA2C482D4D2D4EFFF7CBFFFA208E
:103CC000FEF73CFA2B4800F0C1FB02212748FCF725
:103CD000E9FD0128044627D1002202212846FCF7ED
:103CE000E7FD4FF47A70FCF77FFC2046FFF750FBAE
:103CF0002346224600212048FFF744FF00231A46AE
:103D000021461E48FFF73EFF0023224602211C48A1
:103D1000FFF738FF00231A4603211A48FFF732FF46
:103D20000120FFF735FBD0E701211148FCF7BAFD70
:103D300001280446F4D1014600223046FCF7B8FDC4
:103D40004FF47A70FCF750FC2046FFF721FB00206F
:103D5000FFF766FF2046FFF763FF0220FFF760FFD3
:103D60000320FFF75DFFDBE7085D0020000802404D
:103D700000000240E3570008F65700080D580008FD
:103D800024580008335800080268034B9A4201D1B6
:103D9000FCF718BC704700BF00140040014800F059
:103DA00055BB00BFD457000810B594B03022002195
:103DB00008A800F0BAFA1422002103A800F0B5FA0E
:103DC000204B002101911A6C42F080521A641B6C46
:103DD00003F080530193019B1B4B02911A6842F43C
:103DE00080421A601B6803F480430293029B012304
:103DF00008934FF4803309934FF4800302240F9308
:103E0000A822042308A80E941093119212941393DD
:103E1000FDF744FD08B1FFF7C1FF0F230393002313
:103E200005934FF4A053069305214FF4805303A844
:103E300004940793FDF7E2FE08B1FFF7AFFF14B05B
:103E400010BD00BF003802400070004000B599B0BE
:103E5000FCF79EFBFFF7A8FF142200210FA800F03B
:103E600064FA0024554B01941A6B554842F08002C5
:103E70001A631A6B02F080020192019A02941A6B83
:103E800042F004021A631A6B02F004020292029AD0
:103E900003941A6B42F001021A631A6B02F00102DA
:103EA0000392039A04941A6B42F002021A631A6B8B
:103EB00002F002020492049A05941A6B42F008027E
:103EC0001A631B6B03F00803059322460121059B2F
:103ED000FCF7EEFC224602213A48FCF7E9FC2246B8
:103EE00008213948FCF7E4FC01250FA934480F9557
:103EF0000226109511941294FCF7F4FB0FA9304898
:103F00000F9610941196FCF7EDFB0FA92F480F9513
:103F100010941196FCF7E6FB0FA92A480F9610950E
:103F200011951296FCF7DEFB082327480F930FA983
:103F3000109511941294FCF7D5FB2548254B264A81
:103F4000846080E80C004FF48043C46003614461E6
:103F50008461C4610462FCF78DFD08B1FFF71EFFA8
:103F60001E4800F073FAFEF74BF82422002106A841
:103F700000F0DBF91A4B069318230DEB03024FF404
:103F80008064002117480C930B94FEF775F8164BCC
:103F90002422186000210FA800F0C7F9134B0F93DB
:103FA0000FAA08230021124815931494FEF764F811
:103FB000104B1860FEF740F8FEE700BF00380240E3
:103FC0000008024000040240000C024000000240D1
:103FD000085D0020A08601000054004042580008FF
:103FE00048580008AD3C0008045D00205458000803
:103FF000A13C00085C5D002007B50F4B0022009239
:10400000596C41F480415964596C01F4804100912C
:1040100000990192196C41F0805119641B6C03F0F6
:10402000805301930F216FF00100019BFCF702FB0D
:1040300003B05DF804FB00BF0038024030B5044611
:1040400089B01422002103A800F06FF922681E4BEA
:104050009A4236D11D4C1E48002500F0F7F9019513
:10406000236B1C4843F002032363236B03F002031A
:104070000193019BC023039312230493012305930F
:104080000323069303A904230793FCF72BFB029554
:10409000236C43F400132364236C03F400132A46B7
:1040A000052102931F20029BFCF7C4FA1F20FCF796
:1040B000F5FA20202A460521FCF7BCFA2020FCF75F
:1040C000EDFA09B030BD00BF005400400038024096
:1040D0005D5800080004024030B5014689B0002256
:1040E0003720FCF7A7FA3720FCF7D8FA0025154B44
:1040F00002951A6C144C42F020021A641B6C03F0F7
:104100002003029301A903A8029BFDF721FEFDF7FE
:104110000FFE0E4B236040F2E733E36040000C4B90
:10412000B0FBF3F00138606020462561A560FDF723
:104130004BFF20B92046FDF72AFE09B030BD012013
:10414000FBE700BF00380240605D00200014004023
:1041500040420F007047FEE7FEE7FEE7FEE77047CC
:104160000148FCF7E1BE00BF085D00200148FDF7F3
:10417000FFBA00BF085D00200148FDF71CBE00BF6C
:10418000605D002070B50E4615460C46A31B9D428F
:1041900001DC284670BDAFF3008004F8010BF5E7A1
:1041A00010B500234FF06044934201DB104610BD70
:1041B000D4F8800EC00703D5D4F8000EC00702D48F
:1041C0000133F1E700BF20680028FBD0C85C2070F5
:1041D000F6E7000008B50A4B1968024609B9094913
:1041E00019601868694602448A4206D900F068F8E6
:1041F0000C2303604FF0FF3008BD1A6008BD00BFFC
:10420000505B0020A45D00204FF0FF3070474FF45A
:1042100000534B600020704701207047002070471A
:104220000F49D1F8883043F47003C1F888300D4B42
:104230001A68002042F001021A6098601A6822F0A1
:10424000847222F480321A60074A5A601A6822F493
:1042500080221A60D8604FF000638B60704700BF07
:1042600000ED00E00038024010300024DFF834D0C8
:10427000002103E00C4B5B58435004310B480C4BBE
:1042800042189A42F6D30B4A02E0002342F8043B5C
:10429000094B9A42F9D3FFF7C3FF00F017F8FFF775
:1042A000D5FD7047000002203459000800000020AE
:1042B0007000002070000020A45D0020FEE70000D8
:1042C000014B1868704700BF0C00002070B50D4E00
:1042D0000D4CA41BA4100025A54209D10B4E0C4C7B
:1042E00000F0D2FFA41BA4100025A54205D170BD8B
:1042F00056F8253098470135EEE756F825309847AF
:104300000135F2E72C5900082C5900082C590008F7
:104310003059000810B5431E0A44914200D110BD27
:1043200011F8014B03F8014FF7E7024403469342AB
:1043300000D1704703F8011BF9E700000FB40A4BE6
:1043400013B51C6824B1A36913B9204600F038FAEC
:1043500005AB049AA1680193204600F0F5FB02B07A
:10436000BDE8104004B070470C00002038B5084B81
:104370001C68054624B1A36913B9204600F020FA51
:10438000A26829462046BDE8384000F089BE00BF3B
:104390000C00002070B50E46054618B183690BB9B4
:1043A00000F00EFAAB69AC6813B9284600F008FAC1
:1043B000234B9C4217D16C68A3891B071DD5236929
:1043C000DBB1013EA36816F8011F013BA360E9B908
:1043D000002B2EDA22460A21284600F03FF8013051
:1043E00011D00A2070BD174B9C4201D1AC68E3E7A5
:1043F000154B9C4208BFEC68DEE72146284600F0DA
:104400007FF80028DDD04FF0FF3070BD002B04DABC
:10441000A269934206DB0A2904D023685A1C226051
:104420001970CFE72246284600F018F80130C9D1AC
:10443000E9E723680A205A1C2260187070BD00BF8B
:10444000B0580008D058000890580008024B0146A8
:104450001868FFF79FBF00BF0C000020F8B50E469C
:104460001446054618B183690BB900F0A9F9214B30
:104470009C422AD16C68A369A360A3891A072ED530
:10448000236963B323692068C01A6369F6B298424E
:10449000374604DB2146284600F028F928BBA368EC
:1044A000013BA36023685A1C22601E7063690130BF
:1044B000984204D0A389DB0719D50A2E17D12146CB
:1044C000284600F013F990B10FE00B4B9C4201D14C
:1044D000AC68D0E7094B9C4208BFEC68CBE72146AB
:1044E000284600F00DF80028CCD04FF0FF373846B2
:1044F000F8BD00BFB0580008D05800089058000818
:10450000324B70B51D6806460C4625B1AB6913B930
:10451000284600F055F92E4B9C420FD16C68B4F937
:104520000C309AB215072CD4D00611D4092232606F
:1045300043F04003A3814FF0FF3070BD254B9C42F8
:1045400001D1AC68EBE7244B9C4208BFEC68E6E77E
:10455000510712D5616B41B104F14403994202D075
:10456000304600F01BFA00236363A38923F0240381
:10457000A3810023636023692360A38943F00803B8
:10458000A38123694BB9A38903F42073B3F5007F9A
:1045900003D02146304600F0C1F9A28912F0010390
:1045A0000CD00023A36063695B42A361236953B904
:1045B000B4F90C3013F08000BAD170BD920758BF27
:1045C0006369A360F2E70020F7E700BF0C0000205A
:1045D000B0580008D0580008905800088A892DE982
:1045E000F041054610070C465AD44B68002B05DCF9
:1045F0000B6C002B02DC0020BDE8F081E66A002E87
:10460000F9D0002312F480522F682B6033D0606DF4
:10461000A3895A0705D56368C01A636B0BB1236C75
:10462000C01A00230246E66A216A2846B047431CA6
:10463000A38906D129681D294BD82B4ACA40D60721
:1046400047D500226260D9042269226004D5421C49
:1046500001D12B6803B96065616B2F600029CAD056
:1046600004F14403994202D0284600F097F9002053
:104670006063BDE8F081216A01232846B047411CF0
:10468000C6D12B68002BC3D01D2B01D0162B01D116
:104690002F60B0E7A38943F04003A381BDE8F08118
:1046A0000F69002FA7D093070E6808BF4B690F60F2
:1046B00018BF0023A6EB07088B60B8F1000F9ADD46
:1046C00043463A46216AA66A2846B047002807DCD6
:1046D000A38943F04003A3814FF0FF30BDE8F08190
:1046E0000744A8EB0008E8E70100402038B50B6953
:1046F00005460C46DBB118B183690BB900F060F8D0
:104700000C4B9C4209D16C68B4F90C307BB121464A
:104710002846BDE83840FFF761BF074B9C4201D1F6
:10472000AC68F1E7054B9C4208BFEC68ECE7002061
:1047300038BD00BFB0580008D05800089058000895
:10474000014900F0A9B800BFED460008002310B5EC
:10475000044603604360836081814366C2810361D4
:1047600043618361194608225C30FFF7DEFD054B8B
:104770006362054BA362054BE362054B246223632E
:1047800010BD00BF2D5100084F510008875100088F
:10479000AB51000870B54A1E682555430E4605F119
:1047A000740100F049F9044640B1002180E842005C
:1047B0000C30A06005F16802FFF7B7FD204670BD20
:1047C000836910B5044633BB8364C3640365124B2D
:1047D000124A1B688262984204BF0123836100F081
:1047E0001FF86060204600F01BF8A060204600F033
:1047F00017F80022E06004216068FFF7A7FF01229C
:104800000921A068FFF7A2FF02221221E068FFF74A
:104810009DFF0123A36110BD8C580008414700088B
:10482000F8B51C4B1E68B369074613B93046FFF74D
:10483000C7FF4836B4687368013B03D5336833B1AA
:104840003668F7E7B4F90C506DB16834F4E7042129
:104850003846FFF79FFF30600028F1D10C233B6002
:1048600004462046F8BD4FF6FF73E3810123A38180
:1048700065662560A560656025616561A5610822A2
:10488000294604F15C00FFF750FD6563A563A5644C
:10489000E564E6E78C5800082DE9F8438046894630
:1048A00000F14804002614B93046BDE8F883A56835
:1048B0006768013F01D52468F5E7AB89012B07D96B
:1048C000B5F90E30013303D029464046C8470643A8
:1048D0006835EEE770B50E46B1F90E10002990B0BC
:1048E00014461D4607DA00232B60B3891A0610D43C
:1048F0004FF480630EE001AA00F07EFC0028F2DB9A
:10490000029A02F47042A2F500535A425A412A60B8
:10491000EEE740230020236010B070BD8B8973B593
:104920009D0706460C4607D504F147032360236123
:104930000123636102B070BD01AB6A46FFF7CAFF95
:1049400000990546304600F077F848B9B4F90C30C4
:104950009A05EFD423F0030343F00203A381E3E7B6
:104960000D4BB362A389206043F08003A381009BB9
:104970006361019B20615BB1B4F90E10304600F019
:104980004DFC28B1A38923F0030343F00103A38165
:10499000A3891D43A581CDE74147000838B50546E9
:1049A000002945D051F8043C0C1F002BB8BFE41877
:1049B00000F056FC1F4A1368104633B96360146058
:1049C0002846BDE8384000F04CBCA3420CD9216811
:1049D0006218934204BF1A685B68636004BF521890
:1049E00022600460ECE713465A680AB1A242FAD981
:1049F00019685818A0420BD1206801445818824207
:104A00001960DDD1106852685A6001441960D7E717
:104A100002D90C232B60D3E7206821188A4204BFF7
:104A200011685268626004BF091821605C60C7E7C2
:104A300038BD00BF545B002070B5CD1C25F00305C8
:104A400008350C2D38BF0C25002D064601DBA94288
:104A500003D90C233360002070BD00F001FC234A11
:104A60001468214691B9224C23681BB9304600F0E6
:104A70004DFB20602946304600F048FB431C26D100
:104A80000C233360304600F0ECFBE4E70B685B1B63
:104A90001AD40B2B0FD90B60CD50CC18304600F038
:104AA000E0FB04F10B00231D20F00700C31A1BD00C
:104AB0005A42E25070BD8C420DBF63684B68636020
:104AC000136018BF0C46E9E70C464968CAE7C41CE6
:104AD00024F00304A04205D0211A304600F016FB52
:104AE0000130CDD02560D9E770BD00BF545B0020F8
:104AF000585B00209368013B002B10B4936009DAE7
:104B00009469A34202DBCBB20A2B03D15DF8044BBC
:104B1000FFF7A4BC1368581C10601970C8B25DF888
:104B2000044B7047F8B506460F461446D518AC42FC
:104B300001D1002007E03A4614F8011B3046FFF788
:104B4000D9FF431CF3D1F8BD2DE9F04F9DB00C46C1
:104B500017460393064618B183690BB9FFF730FE79
:104B60007C4B9C4257D17468A38918075DD5236993
:104B7000002B5AD00023099320238DF829303023AD
:104B80008DF82A304FF0010BB846454615F8013B29
:104B9000002B55D1B8EB070A0BD053463A462146B5
:104BA0003046FFF7BFFF013000F0C480099B53443B
:104BB000099398F80030002B00F0BC8000234FF0E0
:104BC000FF3204930793059206938DF853301A939E
:104BD000052229786048FBF703FB05F10108049BD7
:104BE000002831D1D90644BF20228DF853201A075E
:104BF00044BF2B228DF853202A782A2A2CD0079ADA
:104C000000210A20A846013598F80030303B092BD6
:104C10006DD971B326E0514B9C4201D1B468A3E732
:104C20004F4B9C4208BFF4689EE721463046FFF791
:104C300067FC00289ED04FF0FF301DB0BDE8F08F1C
:104C4000252BA7D0A846A0E7434A801A0BFA00F00C
:104C5000184304904546BBE7039A111D126803915F
:104C6000002A01DB079204E0524243F0020307925C
:104C7000049398F800302E2B10D198F801302A2B8D
:104C800008F1010137D1039B1A1D1B680392002B09
:104C9000B8BF4FF0FF3308F102080593314D98F883
:104CA000001003222846FBF79BFA40B14023401B2B
:104CB00003FA00F0049B0343049308F1010898F8F9
:104CC000001029488DF82810062208F10107FBF78B
:104CD00087FA002834D0254B03BB039B073323F00E
:104CE000070308330393099B4B4409934CE700FBEC
:104CF0000232012186E70023059318460A258846DB
:104D0000013198F80020303A092A03D9002BC5D088
:104D10000590C3E705FB00200123F0E703AB0093F8
:104D20002246134B04A93046AFF30080B0F1FF3F99
:104D30008146D8D1A3895B063FF57DAF09987CE712
:104D400003AB009322460A4B04A9304600F088F8D2
:104D5000ECE700BFB0580008F0580008D058000831
:104D600090580008F6580008FA58000800000000A3
:104D7000254B00082DE9F04791461F468A680B69CC
:104D8000DDF820809342B8BF1346C9F8003091F88F
:104D9000432006460C4612B10133C9F8003023689F
:104DA000990642BFD9F800300233C9F800302568AF
:104DB00015F0060507D104F1190AE368D9F80020B7
:104DC0009B1A9D4229DB94F843302268003318BFB8
:104DD000012392062ED404F1430239463046C047DF
:104DE000013021D02368E568D9F8002003F00603DC
:104DF000042B08BFAD1AA36822690CBF25EAE5752C
:104E000000259342C4BF9B1AED184FF000091A34D5
:104E10004D451BD10020BDE8F0870123524639469D
:104E20003046C047013003D14FF0FF30BDE8F08776
:104E30000135C2E7E1185A1C302081F843002244B2
:104E400094F8451082F843100233C4E70123224648
:104E500039463046C0470130E6D009F10109D7E7AD
:104E60002DE9F04317460A7E85B06E2A984606461D
:104E70000C460C9B01F1430E00F0BC801AD8632A4B
:104E80002ED00AD8002A00F0C880582A00F08A8064
:104E900004F1420584F842202AE0642A01D0692AFC
:104EA000F6D121681A6811F0800F23D0111D196006
:104EB000136827E0732A00F0B48008D86F2A2AD03C
:104EC000702AE5D10A6842F020020A6003E0752AE0
:104ED00021D0782ADCD1782284F845206E4964E01C
:104EE0001A6801F14205111D1960136884F84230F7
:104EF0000123A3E011F0400F02F104011960D7D0A3
:104F0000B2F90030002B03DA2D225B4284F84320F3
:104F100062490A2217E02068196810F0800F03D058
:104F2000081D18600B6806E010F0400F01F1040046
:104F30001860F7D00B8859496F2A14BF0A2208223B
:104F4000002084F843006568A560002DC0F29C80B5
:104F5000206820F004002060002B3FD1002D40F09D
:104F600095807546082A0BD12368DA0708D523698E
:104F700062689A42DEBF302305F8013C05F1FF3537
:104F8000AEEB05032361CDF800803B4603AA214622
:104F90003046FFF7EFFE013055D14FF0FF3005B03E
:104FA000BDE8F08381F845203C492268186812F07A
:104FB000800F00F104051D6001D0036802E0550672
:104FC000FBD50388D00744BF42F0200222601BB902
:104FD000226822F0200222601022B1E77546B3FB5E
:104FE000F2F002FB1033CB5C05F8013D03460028CC
:104FF000F5D1B7E708681A68496910F0800F04D046
:10500000101D18601368196007E010F0400F02F1DE
:10501000040018601368F6D01980002323617546D8
:10502000B1E71A68111D19601568626800212846E9
:10503000FBF7D6F808B1401B60606368236100236A
:1050400084F843309FE723692A4639463046C047F3
:105050000130A2D023689B0707D5002504F1190968
:10506000E368039A9B1A9D4205DBE068039B984224
:10507000B8BF184693E701234A4639463046C04731
:1050800001308AD00135EBE7002BA7D10B7884F8EB
:10509000423004F1420565E7125900080159000841
:1050A00070B50D461446064618B183690BB9FFF773
:1050B00087FB134B9C4212D17468A368013B002B01
:1050C000A36016DAA269934202DBEBB20A2B10D17D
:1050D000224629463046BDE87040FFF7BFB9094B6C
:1050E0009C4201D1B468E8E7074B9C4208BFF468D2
:1050F000E3E723685A1C22601D70E8B270BD00BF50
:10510000B0580008D05800089058000838B5064C30
:105110000023054608462360FFF75CF8431C02D1D4
:10512000236803B12B6038BDA05D002010B50C468C
:10513000B1F90E1000F096F80028ABBF636DA3899B
:105140001B1823F48053ACBF6365A38110BD2DE908
:10515000F0411F468B89DB0505460C46164605D5F2
:1051600002230022B1F90E1000F068F8A389B4F907
:105170000E1023F48053A38132463B462846BDE8F7
:10518000F04100F017B810B50C46B1F90E1000F060
:1051900055F8431CA38915BF606523F4805343F47D
:1051A0008053A38118BFA38110BDB1F90E1000F088
:1051B00013B8000038B5074C0546084611460022D2
:1051C00022601A46FEF7ECFF431C02D1236803B1AC
:1051D0002B6038BDA05D002038B5064C0023054685
:1051E00008462360FFF710F8431C02D1236803B17F
:1051F0002B6038BDA05D002038B5074C0023054664
:10520000084611462360FFF702F8431C02D12368C9
:1052100003B12B6038BD00BFA05D002038B5064C3F
:105220000023054608462360FEF7F6FF431C02D123
:10523000236803B12B6038BDA05D002038B5074C52
:10524000054608461146002222601A46FEF7E6FF90
:10525000431C02D1236803B12B6038BDA05D002040
:105260007047704738B5074C05460846114600227E
:1052700022601A46FEF786FF431C02D1236803B161
:105280002B6038BDA05D0020F8B500BFF8BC08BC9D
:105290009E467047F8B500BFF8BC08BC9E467047F4
:1052A00049444C4500546D725100546D7220537640
:1052B000630000000000000000000000000000008B
:1052C00000000000000000000000000000000000DE
:1052D00000000000000000000000000000000000CE
:1052E00000000000000000000000000000000000BE
:1052F00000000000000000000000000000000000AE
:10530000000000000000000000000000000000009D
:10531000000000000000000000000000000000008D
:10532000000000000000000000000000000000007D
:10533000000000000000000000000000000000006D
:10534000000000000000000000000000000000005D
:105350000000000000000000005F000000070007E0
:1053600000147F147F14242A7F2A124C2C106864A6
:1053700036495522500005030000001C2241000060
:1053800041221C0014083E081408083E08080000CA
:105390005030001010101010006060000020100845
:1053A00004023E5149453E00427F4000426151495E
:1053B000462141454B311814127F10274545453988
:1053C0003C4A4949300171090503364949493606C5
:1053D0004949291E003636000000563600000814E0
:1053E0002241001414141414004122140802015123
:1053F00009063C425A560C7E1111117E7F494949DB
:10540000363E414141227F4141221C7F4949494169
:105410007F090909013E4149497A7F0808087F0050
:10542000417F41002040413F017F081422417F40DD
:105430004040407F020C027F7F0408107F3E4141C4
:10544000413E7F090909063E4151215E7F09192924
:1054500046464949493101017F01013F4040403FF3
:105460001F2040201F3F4038403F6314081463074B
:10547000087008076151494543007F41410002041B
:105480000810200041417F00040201020440404016
:105490004040000102040020545454787F484444A2
:1054A000383844444420384444487F3854545418CD
:1054B000087E0901020C5252523E7F080404780013
:1054C000447D40002040443D007F102844000041BE
:1054D0007F40007C041804787C0804047838444435
:1054E00044387C14141408081414187C7C08040430
:1054F000084854545420043F4440203C4040207C01
:105500001C2040201C3C4030403C44281028440CC7
:105510005050503C4464544C440008364100000054
:105520007F00000041360800080408100800000051
:10553000000000000000000000000000000000006B
:10554000000000000000000000000040004000409B
:105550000404FF04042424FF2424287CAAAA820033
:10556000000000000000000000000000000000003B
:10557000000000000000000000000000000000002B
:105580000000000000000000060500000000050308
:105590000006050006050503000503183C3C3C1801
:1055A000000000000000000000007848487800007B
:1055B00000000000000000000000000000000000EB
:1055C00000000000000000000000000000000000DB
:1055D00000000000000000000000000000000000CB
:1055E000000000000000221C141C227E02020203A4
:1055F0000000E700004A95A5A9527C555445440097
:10560000182424003E4949412208142A1422040483
:1056100004040C0008080800000000000000457C9D
:10562000450000040A040044445F444400417F41B3
:105630000000007A00000078080C0000FC203C20EC
:105640000C1EFE02FE001818000039545449007860
:1056500010207B03385454440022142A14080000FC
:105660000000000000000000000000000000547076
:1056700044007C1211127C7F494949317F494949D4
:10568000367F01010101603F213F607F4949494167
:1056900077087F087722414949367F1008047F7ECA
:1056A0001009047E7F08142241403E01017F7F02E1
:1056B0000C027F7F0808087F3E4141413E7F010187
:1056C000017F7F090909063E4141412201017F0115
:1056D00001074848483F0E117F110E6314081463F8
:1056E0003F20203F60070808087F7F407E407F3FC3
:1056F000203F207F017F4848307F4830007F007F77
:10570000484830224149493E7F083E413E462919DA
:10571000097F20545454783C4A4A4A317C545428D6
:10572000007C04040C00603C243C60385454541841
:105730006C107C106C00445454287C2010087C7C35
:105740002112097C7C10284400403804047C7C0829
:1057500010087C7C1010107C38444444387C0404CD
:10576000047C7C14141408384444440004047C046D
:10577000040C5050503C08147C1408442810284451
:105780003C20203C600C1010107C7C407C407C3C19
:10579000203C207C047C5050207C5020007C007CED
:1057A00050502028445454387C10384438485434DD
:1057B000147C3E3E20003078252E325820002D3EAD
:1057C000200020657272205472616E736D697420BE
:1057D00025730A004572726F725F48616E646C6572
:1057E000720D003120537461727444656661756C8A
:1057F000745461736B003132333435363738393095
:1058000031323334353637383930310A0048656C37
:105810006C6F20576F726C642031323334353637F9
:1058200038390A0048656C6C6F20576F726C6420C1
:10583000320A0048656C6C6F20576F726C642033BD
:105840000A0073746172740064656661756C7454E7
:1058500061736B006D795461736B30320031204895
:10586000414C5F4932435F4D7370496E69744932F0
:10587000433120000000000000000000010203048A
:1058800006070809000000000102030410000020C0
:105890000000000000000000000000000000000008
:1058A00000000000000000000000000000000000F8
:1058B00000000000000000000000000000000000E8
:1058C00000000000000000000000000000000000D8
:1058D00000000000000000000000000000000000C8
:1058E00000000000000000000000000000000000B8
:1058F000232D302B2000686C4C00656667454647B9
:10590000003031323334353637383941424344453B
:1059100046003031323334353637383961626364AA
:0459200065660000B8
:085924008CA9FF7F01000000C7
:04592C00B5010008B9
:0459300091010008D9
:1059340001000000AAAAAAAA0024F4001000002072
:1059440000000000B0580008D05800089058000823
:105954000000000000000000000000000000000043
:105964000000000000000000000000000000000033
:105974000000000000000000000000000000000023
:105984000000000000000000000000000000000013
:105994000000000000000000000000000000000003
:040000050800426D40
:00000001FF
